{
  "contractName": "ICO",
  "abi": [
    {
      "constant": true,
      "inputs": [],
      "name": "name",
      "outputs": [
        {
          "name": "",
          "type": "string"
        }
      ],
      "payable": false,
      "stateMutability": "view",
      "type": "function"
    },
    {
      "constant": true,
      "inputs": [
        {
          "name": "",
          "type": "address"
        }
      ],
      "name": "contributors",
      "outputs": [
        {
          "name": "",
          "type": "bool"
        }
      ],
      "payable": false,
      "stateMutability": "view",
      "type": "function"
    },
    {
      "constant": true,
      "inputs": [
        {
          "name": "",
          "type": "address"
        }
      ],
      "name": "balances",
      "outputs": [
        {
          "name": "",
          "type": "uint256"
        }
      ],
      "payable": false,
      "stateMutability": "view",
      "type": "function"
    },
    {
      "constant": true,
      "inputs": [],
      "name": "rate",
      "outputs": [
        {
          "name": "",
          "type": "uint256"
        }
      ],
      "payable": false,
      "stateMutability": "view",
      "type": "function"
    },
    {
      "constant": true,
      "inputs": [],
      "name": "decimals",
      "outputs": [
        {
          "name": "",
          "type": "uint256"
        }
      ],
      "payable": false,
      "stateMutability": "view",
      "type": "function"
    },
    {
      "constant": true,
      "inputs": [],
      "name": "bonusEnds",
      "outputs": [
        {
          "name": "",
          "type": "uint256"
        }
      ],
      "payable": false,
      "stateMutability": "view",
      "type": "function"
    },
    {
      "constant": true,
      "inputs": [],
      "name": "allcontributors",
      "outputs": [
        {
          "name": "",
          "type": "uint256"
        }
      ],
      "payable": false,
      "stateMutability": "view",
      "type": "function"
    },
    {
      "constant": true,
      "inputs": [],
      "name": "about",
      "outputs": [
        {
          "name": "",
          "type": "string"
        }
      ],
      "payable": false,
      "stateMutability": "view",
      "type": "function"
    },
    {
      "constant": true,
      "inputs": [],
      "name": "bonus",
      "outputs": [
        {
          "name": "",
          "type": "uint256"
        }
      ],
      "payable": false,
      "stateMutability": "view",
      "type": "function"
    },
    {
      "constant": true,
      "inputs": [],
      "name": "team",
      "outputs": [
        {
          "name": "",
          "type": "string"
        }
      ],
      "payable": false,
      "stateMutability": "view",
      "type": "function"
    },
    {
      "constant": true,
      "inputs": [],
      "name": "fundingOver",
      "outputs": [
        {
          "name": "",
          "type": "bool"
        }
      ],
      "payable": false,
      "stateMutability": "view",
      "type": "function"
    },
    {
      "constant": true,
      "inputs": [],
      "name": "max_supply",
      "outputs": [
        {
          "name": "",
          "type": "uint256"
        }
      ],
      "payable": false,
      "stateMutability": "view",
      "type": "function"
    },
    {
      "constant": true,
      "inputs": [],
      "name": "symbol",
      "outputs": [
        {
          "name": "",
          "type": "string"
        }
      ],
      "payable": false,
      "stateMutability": "view",
      "type": "function"
    },
    {
      "constant": true,
      "inputs": [],
      "name": "icoEnds",
      "outputs": [
        {
          "name": "",
          "type": "uint256"
        }
      ],
      "payable": false,
      "stateMutability": "view",
      "type": "function"
    },
    {
      "constant": true,
      "inputs": [],
      "name": "icoStarts",
      "outputs": [
        {
          "name": "",
          "type": "uint256"
        }
      ],
      "payable": false,
      "stateMutability": "view",
      "type": "function"
    },
    {
      "constant": true,
      "inputs": [],
      "name": "roadmap",
      "outputs": [
        {
          "name": "",
          "type": "string"
        }
      ],
      "payable": false,
      "stateMutability": "view",
      "type": "function"
    },
    {
      "constant": true,
      "inputs": [],
      "name": "whitepaper",
      "outputs": [
        {
          "name": "",
          "type": "string"
        }
      ],
      "payable": false,
      "stateMutability": "view",
      "type": "function"
    },
    {
      "inputs": [],
      "payable": false,
      "stateMutability": "nonpayable",
      "type": "constructor"
    },
    {
      "anonymous": false,
      "inputs": [
        {
          "indexed": true,
          "name": "from",
          "type": "address"
        },
        {
          "indexed": true,
          "name": "to",
          "type": "address"
        },
        {
          "indexed": false,
          "name": "tokens",
          "type": "uint256"
        }
      ],
      "name": "Transfer",
      "type": "event"
    },
    {
      "anonymous": false,
      "inputs": [
        {
          "indexed": true,
          "name": "tokenOwner",
          "type": "address"
        },
        {
          "indexed": true,
          "name": "spender",
          "type": "address"
        },
        {
          "indexed": false,
          "name": "tokens",
          "type": "uint256"
        }
      ],
      "name": "Approval",
      "type": "event"
    },
    {
      "constant": false,
      "inputs": [],
      "name": "buyTokens",
      "outputs": [],
      "payable": true,
      "stateMutability": "payable",
      "type": "function"
    },
    {
      "constant": true,
      "inputs": [],
      "name": "totalSupply",
      "outputs": [
        {
          "name": "",
          "type": "uint256"
        }
      ],
      "payable": false,
      "stateMutability": "view",
      "type": "function"
    },
    {
      "constant": true,
      "inputs": [
        {
          "name": "tokenOwner",
          "type": "address"
        }
      ],
      "name": "balanceOf",
      "outputs": [
        {
          "name": "balance",
          "type": "uint256"
        }
      ],
      "payable": false,
      "stateMutability": "view",
      "type": "function"
    },
    {
      "constant": false,
      "inputs": [
        {
          "name": "to",
          "type": "address"
        },
        {
          "name": "tokens",
          "type": "uint256"
        }
      ],
      "name": "transfer",
      "outputs": [
        {
          "name": "success",
          "type": "bool"
        }
      ],
      "payable": false,
      "stateMutability": "nonpayable",
      "type": "function"
    },
    {
      "constant": false,
      "inputs": [
        {
          "name": "spender",
          "type": "address"
        },
        {
          "name": "tokens",
          "type": "uint256"
        }
      ],
      "name": "approve",
      "outputs": [
        {
          "name": "success",
          "type": "bool"
        }
      ],
      "payable": false,
      "stateMutability": "nonpayable",
      "type": "function"
    },
    {
      "constant": false,
      "inputs": [
        {
          "name": "from",
          "type": "address"
        },
        {
          "name": "to",
          "type": "address"
        },
        {
          "name": "tokens",
          "type": "uint256"
        }
      ],
      "name": "transferFrom",
      "outputs": [
        {
          "name": "success",
          "type": "bool"
        }
      ],
      "payable": false,
      "stateMutability": "nonpayable",
      "type": "function"
    },
    {
      "constant": true,
      "inputs": [
        {
          "name": "tokenOwner",
          "type": "address"
        },
        {
          "name": "spender",
          "type": "address"
        }
      ],
      "name": "allowance",
      "outputs": [
        {
          "name": "remaining",
          "type": "uint256"
        }
      ],
      "payable": false,
      "stateMutability": "view",
      "type": "function"
    },
    {
      "constant": true,
      "inputs": [],
      "name": "myBalance",
      "outputs": [
        {
          "name": "",
          "type": "uint256"
        }
      ],
      "payable": false,
      "stateMutability": "view",
      "type": "function"
    },
    {
      "constant": true,
      "inputs": [],
      "name": "myAddress",
      "outputs": [
        {
          "name": "",
          "type": "address"
        }
      ],
      "payable": false,
      "stateMutability": "view",
      "type": "function"
    },
    {
      "constant": false,
      "inputs": [],
      "name": "endSale",
      "outputs": [],
      "payable": false,
      "stateMutability": "nonpayable",
      "type": "function"
    },
    {
      "constant": false,
      "inputs": [],
      "name": "refund",
      "outputs": [],
      "payable": false,
      "stateMutability": "nonpayable",
      "type": "function"
    }
  ],
  "bytecode": "0x606060405234156200001057600080fd5b6040805190810160405280601781526020017f46697273742043726f776446756e642070726f6a656374000000000000000000815250600190805190602001906200005d929190620003a7565b50608060405190810160405280604981526020017f68747470733a2f2f6c61756e63687061642e62696e616e63652e636f6d2f656e81526020017f2f6c6f74746572792f363738376464393736663762343862386161323334623881526020017f366532313264383934000000000000000000000000000000000000000000000081525060029080519060200190620000f8929190620003a7565b5060a060405190810160405280606d81526020017f2068747470733a2f2f63646e322e736c6964656d6f64656c2e636f6d2f77702d81526020017f636f6e74656e742f75706c6f6164732f31333036332d30312d6d756c74692d7381526020017f7465702d726f61646d61702d636f6e636570742d666f722d706f776572706f6981526020017f6e742d313678392d312e6a70670000000000000000000000000000000000000081525060039080519060200190620001b9929190620003a7565b506040805190810160405280601181526020017f6e6167612d706176616e2d73616d6261610000000000000000000000000000008152506004908051906020019062000207929190620003a7565b506040805190810160405280600681526020017f57617a69727800000000000000000000000000000000000000000000000000008152506000908051906020019062000255929190620003a7565b506040805190810160405280600381526020017f575258000000000000000000000000000000000000000000000000000000000081525060059080519060200190620002a3929190620003a7565b5060126006819055506103844201600781905550621baf80420160088190555042600981905550678ac7230489e80000600c819055506722b1c8c1227a0000600f8190555033601060006101000a81548173ffffffffffffffffffffffffffffffffffffffff021916908373ffffffffffffffffffffffffffffffffffffffff160217905550600f54601160003373ffffffffffffffffffffffffffffffffffffffff1673ffffffffffffffffffffffffffffffffffffffff168152602001908152602001600020819055506000600d81905550600a80819055506064600b819055506000600e60006101000a81548160ff02191690831515021790555062000456565b828054600181600116156101000203166002900490600052602060002090601f016020900481019282601f10620003ea57805160ff19168380011785556200041b565b828001600101855582156200041b579182015b828111156200041a578251825591602001919060010190620003fd565b5b5090506200042a91906200042e565b5090565b6200045391905b808211156200044f57600081600090555060010162000435565b5090565b90565b6118f780620004666000396000f30060606040526004361061016a576000357c0100000000000000000000000000000000000000000000000000000000900463ffffffff16806306fdde031461016f578063095ea7b3146101fd57806318160ddd146102575780631f6d49421461028057806323b872dd146102d157806326b85ee11461034a57806327e235e31461039f5780632c4e722e146103ec578063313ce56714610415578063380d831b1461043e57806340c65003146104535780635497e27f1461047c578063590e1ae3146104a55780635e1d5482146104ba57806370a082311461054857806375b4d78c1461059557806385f2aef2146105be57806389080e9a1461064c5780638a333b501461067957806395d89b41146106a25780639a8ca12c146107305780639c3e0f3f14610759578063a9059cbb14610782578063c9116b69146107dc578063d0febe4c14610805578063dd62ed3e1461080f578063df68a2781461087b578063feea57d314610909575b600080fd5b341561017a57600080fd5b610182610997565b6040518080602001828103825283818151815260200191508051906020019080838360005b838110156101c25780820151818401526020810190506101a7565b50505050905090810190601f1680156101ef5780820380516001836020036101000a031916815260200191505b509250505060405180910390f35b341561020857600080fd5b61023d600480803573ffffffffffffffffffffffffffffffffffffffff16906020019091908035906020019091905050610a35565b604051808215151515815260200191505060405180910390f35b341561026257600080fd5b61026a610b27565b6040518082815260200191505060405180910390f35b341561028b57600080fd5b6102b7600480803573ffffffffffffffffffffffffffffffffffffffff16906020019091905050610b31565b604051808215151515815260200191505060405180910390f35b34156102dc57600080fd5b610330600480803573ffffffffffffffffffffffffffffffffffffffff1690602001909190803573ffffffffffffffffffffffffffffffffffffffff16906020019091908035906020019091905050610b51565b604051808215151515815260200191505060405180910390f35b341561035557600080fd5b61035d610dfc565b604051808273ffffffffffffffffffffffffffffffffffffffff1673ffffffffffffffffffffffffffffffffffffffff16815260200191505060405180910390f35b34156103aa57600080fd5b6103d6600480803573ffffffffffffffffffffffffffffffffffffffff16906020019091905050610e09565b6040518082815260200191505060405180910390f35b34156103f757600080fd5b6103ff610e21565b6040518082815260200191505060405180910390f35b341561042057600080fd5b610428610e27565b6040518082815260200191505060405180910390f35b341561044957600080fd5b610451610e2d565b005b341561045e57600080fd5b610466610f3a565b6040518082815260200191505060405180910390f35b341561048757600080fd5b61048f610f40565b6040518082815260200191505060405180910390f35b34156104b057600080fd5b6104b8610f46565b005b34156104c557600080fd5b6104cd6110b6565b6040518080602001828103825283818151815260200191508051906020019080838360005b8381101561050d5780820151818401526020810190506104f2565b50505050905090810190601f16801561053a5780820380516001836020036101000a031916815260200191505b509250505060405180910390f35b341561055357600080fd5b61057f600480803573ffffffffffffffffffffffffffffffffffffffff16906020019091905050611154565b6040518082815260200191505060405180910390f35b34156105a057600080fd5b6105a861119d565b6040518082815260200191505060405180910390f35b34156105c957600080fd5b6105d16111a3565b6040518080602001828103825283818151815260200191508051906020019080838360005b838110156106115780820151818401526020810190506105f6565b50505050905090810190601f16801561063e5780820380516001836020036101000a031916815260200191505b509250505060405180910390f35b341561065757600080fd5b61065f611241565b604051808215151515815260200191505060405180910390f35b341561068457600080fd5b61068c611254565b6040518082815260200191505060405180910390f35b34156106ad57600080fd5b6106b561125a565b6040518080602001828103825283818151815260200191508051906020019080838360005b838110156106f55780820151818401526020810190506106da565b50505050905090810190601f1680156107225780820380516001836020036101000a031916815260200191505b509250505060405180910390f35b341561073b57600080fd5b6107436112f8565b6040518082815260200191505060405180910390f35b341561076457600080fd5b61076c6112fe565b6040518082815260200191505060405180910390f35b341561078d57600080fd5b6107c2600480803573ffffffffffffffffffffffffffffffffffffffff16906020019091908035906020019091905050611304565b604051808215151515815260200191505060405180910390f35b34156107e757600080fd5b6107ef61149f565b6040518082815260200191505060405180910390f35b61080d6114e6565b005b341561081a57600080fd5b610865600480803573ffffffffffffffffffffffffffffffffffffffff1690602001909190803573ffffffffffffffffffffffffffffffffffffffff169060200190919050506116ac565b6040518082815260200191505060405180910390f35b341561088657600080fd5b61088e611733565b6040518080602001828103825283818151815260200191508051906020019080838360005b838110156108ce5780820151818401526020810190506108b3565b50505050905090810190601f1680156108fb5780820380516001836020036101000a031916815260200191505b509250505060405180910390f35b341561091457600080fd5b61091c6117d1565b6040518080602001828103825283818151815260200191508051906020019080838360005b8381101561095c578082015181840152602081019050610941565b50505050905090810190601f1680156109895780820380516001836020036101000a031916815260200191505b509250505060405180910390f35b60008054600181600116156101000203166002900480601f016020809104026020016040519081016040528092919081815260200182805460018160011615610100020316600290048015610a2d5780601f10610a0257610100808354040283529160200191610a2d565b820191906000526020600020905b815481529060010190602001808311610a1057829003601f168201915b505050505081565b600081601360003373ffffffffffffffffffffffffffffffffffffffff1673ffffffffffffffffffffffffffffffffffffffff16815260200190815260200160002060008573ffffffffffffffffffffffffffffffffffffffff1673ffffffffffffffffffffffffffffffffffffffff168152602001908152602001600020819055508273ffffffffffffffffffffffffffffffffffffffff163373ffffffffffffffffffffffffffffffffffffffff167f8c5be1e5ebec7d5bd14f71427d1e84f3dd0314c0f7b2291e5b200ac8c7c3b925846040518082815260200191505060405180910390a36001905092915050565b6000600f54905090565b60126020528060005260406000206000915054906101000a900460ff1681565b6000610ba582601160008773ffffffffffffffffffffffffffffffffffffffff1673ffffffffffffffffffffffffffffffffffffffff1681526020019081526020016000205461186f90919063ffffffff16565b601160008673ffffffffffffffffffffffffffffffffffffffff1673ffffffffffffffffffffffffffffffffffffffff16815260200190815260200160002081905550610c7782601360008773ffffffffffffffffffffffffffffffffffffffff1673ffffffffffffffffffffffffffffffffffffffff16815260200190815260200160002060003373ffffffffffffffffffffffffffffffffffffffff1673ffffffffffffffffffffffffffffffffffffffff1681526020019081526020016000205461186f90919063ffffffff16565b601360008673ffffffffffffffffffffffffffffffffffffffff1673ffffffffffffffffffffffffffffffffffffffff16815260200190815260200160002060003373ffffffffffffffffffffffffffffffffffffffff1673ffffffffffffffffffffffffffffffffffffffff16815260200190815260200160002081905550610d4982601160008673ffffffffffffffffffffffffffffffffffffffff1673ffffffffffffffffffffffffffffffffffffffff1681526020019081526020016000205461188b90919063ffffffff16565b601160008573ffffffffffffffffffffffffffffffffffffffff1673ffffffffffffffffffffffffffffffffffffffff168152602001908152602001600020819055508273ffffffffffffffffffffffffffffffffffffffff168473ffffffffffffffffffffffffffffffffffffffff167fddf252ad1be2c89b69c2b068fc378daa952ba7f163c4a11628f55a4df523b3ef846040518082815260200191505060405180910390a3600190509392505050565b6000803390508091505090565b60116020528060005260406000206000915090505481565b600b5481565b60065481565b601060009054906101000a900473ffffffffffffffffffffffffffffffffffffffff1673ffffffffffffffffffffffffffffffffffffffff163373ffffffffffffffffffffffffffffffffffffffff16141515610e8957600080fd5b60085442118015610e9e5750600c54600f5410155b15610f1d57601060009054906101000a900473ffffffffffffffffffffffffffffffffffffffff1673ffffffffffffffffffffffffffffffffffffffff166108fc3073ffffffffffffffffffffffffffffffffffffffff16319081150290604051600060405180830381858888f193505050501515610f1c57600080fd5b5b6001600e60006101000a81548160ff021916908315150217905550565b60075481565b600d5481565b60011515601260003373ffffffffffffffffffffffffffffffffffffffff1673ffffffffffffffffffffffffffffffffffffffff16815260200190815260200160002060009054906101000a900460ff161515141515610fa557600080fd5b6001600e60006101000a81548160ff02191690831515021790551515610fca57600080fd5b600c54600f54101515610fdc57600080fd5b3373ffffffffffffffffffffffffffffffffffffffff166108fc61104a600b54601160003373ffffffffffffffffffffffffffffffffffffffff1673ffffffffffffffffffffffffffffffffffffffff168152602001908152602001600020546118a790919063ffffffff16565b9081150290604051600060405180830381858888f19350505050151561106f57600080fd5b6000601160003373ffffffffffffffffffffffffffffffffffffffff1673ffffffffffffffffffffffffffffffffffffffff16815260200190815260200160002081905550565b60018054600181600116156101000203166002900480601f01602080910402602001604051908101604052809291908181526020018280546001816001161561010002031660029004801561114c5780601f106111215761010080835404028352916020019161114c565b820191906000526020600020905b81548152906001019060200180831161112f57829003601f168201915b505050505081565b6000601160008373ffffffffffffffffffffffffffffffffffffffff1673ffffffffffffffffffffffffffffffffffffffff168152602001908152602001600020549050919050565b600a5481565b60048054600181600116156101000203166002900480601f0160208091040260200160405190810160405280929190818152602001828054600181600116156101000203166002900480156112395780601f1061120e57610100808354040283529160200191611239565b820191906000526020600020905b81548152906001019060200180831161121c57829003601f168201915b505050505081565b600e60009054906101000a900460ff1681565b600c5481565b60058054600181600116156101000203166002900480601f0160208091040260200160405190810160405280929190818152602001828054600181600116156101000203166002900480156112f05780601f106112c5576101008083540402835291602001916112f0565b820191906000526020600020905b8154815290600101906020018083116112d357829003601f168201915b505050505081565b60085481565b60095481565b600061135882601160003373ffffffffffffffffffffffffffffffffffffffff1673ffffffffffffffffffffffffffffffffffffffff1681526020019081526020016000205461186f90919063ffffffff16565b601160003373ffffffffffffffffffffffffffffffffffffffff1673ffffffffffffffffffffffffffffffffffffffff168152602001908152602001600020819055506113ed82601160008673ffffffffffffffffffffffffffffffffffffffff1673ffffffffffffffffffffffffffffffffffffffff1681526020019081526020016000205461188b90919063ffffffff16565b601160008573ffffffffffffffffffffffffffffffffffffffff1673ffffffffffffffffffffffffffffffffffffffff168152602001908152602001600020819055508273ffffffffffffffffffffffffffffffffffffffff163373ffffffffffffffffffffffffffffffffffffffff167fddf252ad1be2c89b69c2b068fc378daa952ba7f163c4a11628f55a4df523b3ef846040518082815260200191505060405180910390a36001905092915050565b6000601160003373ffffffffffffffffffffffffffffffffffffffff1673ffffffffffffffffffffffffffffffffffffffff16815260200190815260200160002054905090565b600080600a54600b54013402915061154682601160003373ffffffffffffffffffffffffffffffffffffffff1673ffffffffffffffffffffffffffffffffffffffff1681526020019081526020016000205461188b90919063ffffffff16565b601160003373ffffffffffffffffffffffffffffffffffffffff1673ffffffffffffffffffffffffffffffffffffffff168152602001908152602001600020819055506001601260003373ffffffffffffffffffffffffffffffffffffffff1673ffffffffffffffffffffffffffffffffffffffff16815260200190815260200160002060006101000a81548160ff0219169083151502179055506115f682600f5461188b90919063ffffffff16565b600f819055503373ffffffffffffffffffffffffffffffffffffffff16600073ffffffffffffffffffffffffffffffffffffffff167fddf252ad1be2c89b69c2b068fc378daa952ba7f163c4a11628f55a4df523b3ef846040518082815260200191505060405180910390a36001600d60008282540192505081905550600c54600f54101580611687575060085442115b156116a8576001600e60006101000a81548160ff0219169083151502179055505b5050565b6000601360008473ffffffffffffffffffffffffffffffffffffffff1673ffffffffffffffffffffffffffffffffffffffff16815260200190815260200160002060008373ffffffffffffffffffffffffffffffffffffffff1673ffffffffffffffffffffffffffffffffffffffff16815260200190815260200160002054905092915050565b60038054600181600116156101000203166002900480601f0160208091040260200160405190810160405280929190818152602001828054600181600116156101000203166002900480156117c95780601f1061179e576101008083540402835291602001916117c9565b820191906000526020600020905b8154815290600101906020018083116117ac57829003601f168201915b505050505081565b60028054600181600116156101000203166002900480601f0160208091040260200160405190810160405280929190818152602001828054600181600116156101000203166002900480156118675780601f1061183c57610100808354040283529160200191611867565b820191906000526020600020905b81548152906001019060200180831161184a57829003601f168201915b505050505081565b600082821115151561188057600080fd5b818303905092915050565b600081830190508281101515156118a157600080fd5b92915050565b600080821115156118b757600080fd5b81838115156118c257fe5b049050929150505600a165627a7a72305820c79eb2679ca7ce8b4a6e34ab503e055a900b0253e20709269394ffa0ddf428300029",
  "source": "//version 2 with refund feature\r\n\r\npragma solidity ^0.4.21 ;\r\n\r\n//0x583031D1113aD414F02576BD6afaBfb302140225\r\n//0x14723A09ACff6D2A60DcdF7aA4AFf308FDDC160C\r\n//0x14723A09ACff6D2A60DcdF7aA4AFf308FDDC160C\r\n\r\ncontract ERC20Interface {\r\n    function totalSupply() public constant returns (uint);\r\n    function balanceOf(address tokenOwner) public constant returns (uint balance);\r\n    function allowance(address tokenOwner, address spender) public constant returns (uint remaining);\r\n    function transfer(address to, uint tokens) public returns (bool success);\r\n    function approve(address spender, uint tokens) public returns (bool success);\r\n    function transferFrom(address from, address to, uint tokens) public returns (bool success);\r\n\r\n    event Transfer(address indexed from, address indexed to, uint tokens);\r\n    event Approval(address indexed tokenOwner, address indexed spender, uint tokens);\r\n}\r\n\r\nlibrary SafeMath {\r\n    function add(uint a, uint b) internal pure returns (uint c) {\r\n        c = a + b;\r\n        require(c >= a);\r\n    }\r\n    function sub(uint a, uint b) internal pure returns (uint c) {\r\n        require(b <= a);\r\n        c = a - b;\r\n    }\r\n    function mul(uint a, uint b) internal pure returns (uint c) {\r\n        c = a * b;\r\n        require(a == 0 || c / a == b);\r\n    }\r\n    function div(uint a, uint b) internal pure returns (uint c) {\r\n        require(b > 0);\r\n        c = a / b;\r\n    }\r\n}\r\n\r\n\r\n\r\ncontract ICO is ERC20Interface {\r\n    using SafeMath for uint;\r\n    \r\n    //string public name;\r\n    string public name;\r\n    string public about;\r\n    string public whitepaper;\r\n    string public roadmap;\r\n    string public team;\r\n    string public symbol;\r\n    uint public decimals ;\r\n    uint public bonusEnds; \r\n    uint public icoEnds;\r\n    uint public icoStarts;\r\n    uint public bonus;\r\n    uint public rate;\r\n    uint public max_supply;\r\n    uint public allcontributors;\r\n    bool public fundingOver;\r\n    uint allTokens;\r\n    address admin;\r\n    mapping(address => uint) public balances;\r\n    mapping(address => bool) public contributors;\r\n    mapping(address => mapping(address => uint)) allowed;\r\n    \r\n    function ICO () public {\r\n    //(string _name,string _about,string _whitepaper,string _roadmap,string _team)\r\n        //name=_name;\r\n        about=\"First CrowdFund project\";\r\n        whitepaper=\"https://launchpad.binance.com/en/lottery/6787dd976f7b48b8aa234b86e212d894\";\r\n        roadmap=\" https://cdn2.slidemodel.com/wp-content/uploads/13063-01-multi-step-roadmap-concept-for-powerpoint-16x9-1.jpg\";\r\n        team=\"naga-pavan-sambaa\";\r\n        name = \"Wazirx\";\r\n        symbol = \"WRX\";\r\n        decimals=18;\r\n        bonusEnds =  now +(15  minutes);\r\n        icoEnds = now + (21 days);\r\n        icoStarts = now ;\r\n        max_supply=10000000000000000000;\r\n        allTokens = 2500000000000000000; // tokens sold\r\n        admin = (msg.sender);\r\n        balances[msg.sender] = allTokens;\r\n        allcontributors=0;\r\n        bonus=10;\r\n        rate=100;\r\n        fundingOver =false;\r\n        \r\n        \r\n        \r\n        \r\n    }\r\n    \r\n        function buyTokens() public payable{\r\n            uint tokens;\r\n            uint _rate;\r\n            //require(fundingOver==false);\r\n            //require(allTokens<max_supply);\r\n            \r\n                tokens = msg.value*(rate+bonus);    \r\n            \r\n            \r\n            balances[msg.sender] = balances[msg.sender].add(tokens);\r\n            contributors[msg.sender] = true;\r\n            allTokens = allTokens.add(tokens);\r\n            emit Transfer(address(0),msg.sender,tokens);\r\n            allcontributors+=1;\r\n            if(allTokens>=max_supply ||  now>icoEnds ){\r\n                fundingOver=true;\r\n            }\r\n            \r\n        }\r\n        \r\n        function totalSupply() public constant returns(uint){\r\n            return allTokens;\r\n            \r\n        }\r\n        \r\n        \r\n    function balanceOf(address tokenOwner) public constant returns (uint balance) {\r\n        return balances[tokenOwner];\r\n    }\r\n\r\n\r\n    // ------------------------------------------------------------------------\r\n    // Transfer the balance from token owner's account to `to` account\r\n    // - Owner's account must have sufficient balance to transfer\r\n    // - 0 value transfers are allowed\r\n    // ------------------------------------------------------------------------\r\n    function transfer(address to, uint tokens) public returns (bool success) {\r\n        balances[msg.sender] = balances[msg.sender].sub(tokens);\r\n        balances[to] = balances[to].add(tokens);\r\n        emit Transfer(msg.sender, to, tokens);\r\n        return true;\r\n    }\r\n\r\n\r\n    // ------------------------------------------------------------------------\r\n    // Token owner can approve for `spender` to transferFrom(...) `tokens`\r\n    // from the token owner's account\r\n    //\r\n    // https://github.com/ethereum/EIPs/blob/master/EIPS/eip-20-token-standard.md\r\n    // recommends that there are no checks for the approval double-spend attack\r\n    // as this should be implemented in user interfaces \r\n    // ------------------------------------------------------------------------\r\n    function approve(address spender, uint tokens) public returns (bool success) {\r\n        allowed[msg.sender][spender] = tokens;\r\n        emit Approval(msg.sender, spender, tokens);\r\n        return true;\r\n    }\r\n\r\n\r\n    // ------------------------------------------------------------------------\r\n    // Transfer `tokens` from the `from` account to the `to` account\r\n    // \r\n    // The calling account must already have sufficient tokens approve(...)-d\r\n    // for spending from the `from` account and\r\n    // - From account must have sufficient balance to transfer\r\n    // - Spender must have sufficient allowance to transfer\r\n    // - 0 value transfers are allowed\r\n    // ------------------------------------------------------------------------\r\n    function transferFrom(address from, address to, uint tokens) public returns (bool success) {\r\n        balances[from] = balances[from].sub(tokens);\r\n        allowed[from][msg.sender] = allowed[from][msg.sender].sub(tokens);\r\n        balances[to] = balances[to].add(tokens);\r\n        emit Transfer(from, to, tokens);\r\n        return true;\r\n    }\r\n\r\n\r\n    // ------------------------------------------------------------------------\r\n    // Returns the amount of tokens approved by the owner that can be\r\n    // transferred to the spender's account\r\n    // ------------------------------------------------------------------------\r\n    function allowance(address tokenOwner, address spender) public constant returns (uint remaining) {\r\n        return allowed[tokenOwner][spender];\r\n    }\r\n\r\n\r\n        \r\n        \r\n        \r\n        function myBalance() public constant returns (uint){\r\n            return (balances[msg.sender]);\r\n        }\r\n        \r\n        function myAddress() public constant returns (address){\r\n            address myAddr=msg.sender;\r\n            return myAddr;\r\n        }\r\n        \r\n        function endSale() public {\r\n            require(msg.sender==admin);\r\n            if(now> icoEnds &&  allTokens>=max_supply)\r\n                admin.transfer(address(this).balance);\r\n            \r\n            fundingOver=true;\r\n            \r\n        }\r\n        function refund(){\r\n            //uint tokens;\r\n            require(contributors[msg.sender]==true);\r\n            require(fundingOver=true);\r\n            require(allTokens  <  max_supply );\r\n            \r\n            \r\n            (msg.sender).transfer( ( balances[msg.sender]).div(rate)  );\r\n            balances[msg.sender]=0;\r\n            \r\n        }\r\n    }\r\n        \r\n    \r\n\r\n\r\n\r\n/*  version 1 refund not implemented \r\npragma solidity ^0.4.21 ;\r\n\r\n//0x583031D1113aD414F02576BD6afaBfb302140225\r\n//0x14723A09ACff6D2A60DcdF7aA4AFf308FDDC160C\r\n//0x14723A09ACff6D2A60DcdF7aA4AFf308FDDC160C\r\n\r\ncontract ERC20Interface {\r\n    function totalSupply() public constant returns (uint);\r\n    function balanceOf(address tokenOwner) public constant returns (uint balance);\r\n    function allowance(address tokenOwner, address spender) public constant returns (uint remaining);\r\n    function transfer(address to, uint tokens) public returns (bool success);\r\n    function approve(address spender, uint tokens) public returns (bool success);\r\n    function transferFrom(address from, address to, uint tokens) public returns (bool success);\r\n\r\n    event Transfer(address indexed from, address indexed to, uint tokens);\r\n    event Approval(address indexed tokenOwner, address indexed spender, uint tokens);\r\n}\r\n\r\nlibrary SafeMath {\r\n    function add(uint a, uint b) internal pure returns (uint c) {\r\n        c = a + b;\r\n        require(c >= a);\r\n    }\r\n    function sub(uint a, uint b) internal pure returns (uint c) {\r\n        require(b <= a);\r\n        c = a - b;\r\n    }\r\n    function mul(uint a, uint b) internal pure returns (uint c) {\r\n        c = a * b;\r\n        require(a == 0 || c / a == b);\r\n    }\r\n    function div(uint a, uint b) internal pure returns (uint c) {\r\n        require(b > 0);\r\n        c = a / b;\r\n    }\r\n}\r\n\r\n\r\n\r\ncontract ICO is ERC20Interface {\r\n    using SafeMath for uint;\r\n    \r\n    //string public name;\r\n    string public name;\r\n    string public about;\r\n    string public whitepaper;\r\n    string public roadmap;\r\n    string public team;\r\n    string public symbol;\r\n    uint public decimals ;\r\n    uint public bonusEnds; \r\n    uint public icoEnds;\r\n    uint public icoStarts;\r\n    uint public allcontributors;\r\n    uint allTokens;\r\n    address admin;\r\n    mapping(address => uint) public balances;\r\n    mapping(address => mapping(address => uint)) allowed;\r\n    \r\n    function ICO () public {\r\n    //(string _name,string _about,string _whitepaper,string _roadmap,string _team)\r\n        //name=_name;\r\n        about=\"First CrowdFund project\";\r\n        whitepaper=\"https://bitcoin.org/bitcoin.pdf\";\r\n        roadmap=\" https://cdn2.slidemodel.com/wp-content/uploads/13063-01-multi-step-roadmap-concept-for-powerpoint-16x9-1.jpg\";\r\n        team=\"nag-pavan-samba\";\r\n        name = \"crowdfundcoin1\";\r\n        symbol = \"CFT1\";\r\n        decimals=18;\r\n        bonusEnds = now * 1  weeks;\r\n        icoEnds = now * 20 weeks;\r\n        icoStarts = now ;\r\n        allTokens = 10000000000000000000;\r\n        admin = (msg.sender);\r\n        balances[msg.sender] = allTokens.div(5);\r\n        allcontributors=1;\r\n        \r\n        \r\n    }\r\n    \r\n        function buyTokens() public payable{\r\n            uint tokens;\r\n            if (now <= bonusEnds){\r\n                tokens=msg.value.mul(1100);\r\n            }\r\n            else{\r\n                tokens = msg.value*1000;    \r\n            }\r\n            \r\n            balances[msg.sender] = balances[msg.sender].add(tokens);\r\n            allTokens = allTokens.add(tokens);\r\n            emit Transfer(address(0),msg.sender,tokens);\r\n            allcontributors+=1;\r\n            \r\n        }\r\n        \r\n        function totalSupply() public constant returns(uint){\r\n            return allTokens;\r\n            \r\n        }\r\n        \r\n        \r\n    function balanceOf(address tokenOwner) public constant returns (uint balance) {\r\n        return balances[tokenOwner];\r\n    }\r\n\r\n\r\n    // ------------------------------------------------------------------------\r\n    // Transfer the balance from token owner's account to `to` account\r\n    // - Owner's account must have sufficient balance to transfer\r\n    // - 0 value transfers are allowed\r\n    // ------------------------------------------------------------------------\r\n    function transfer(address to, uint tokens) public returns (bool success) {\r\n        balances[msg.sender] = balances[msg.sender].sub(tokens);\r\n        balances[to] = balances[to].add(tokens);\r\n        emit Transfer(msg.sender, to, tokens);\r\n        return true;\r\n    }\r\n\r\n\r\n    // ------------------------------------------------------------------------\r\n    // Token owner can approve for `spender` to transferFrom(...) `tokens`\r\n    // from the token owner's account\r\n    //\r\n    // https://github.com/ethereum/EIPs/blob/master/EIPS/eip-20-token-standard.md\r\n    // recommends that there are no checks for the approval double-spend attack\r\n    // as this should be implemented in user interfaces \r\n    // ------------------------------------------------------------------------\r\n    function approve(address spender, uint tokens) public returns (bool success) {\r\n        allowed[msg.sender][spender] = tokens;\r\n        emit Approval(msg.sender, spender, tokens);\r\n        return true;\r\n    }\r\n\r\n\r\n    // ------------------------------------------------------------------------\r\n    // Transfer `tokens` from the `from` account to the `to` account\r\n    // \r\n    // The calling account must already have sufficient tokens approve(...)-d\r\n    // for spending from the `from` account and\r\n    // - From account must have sufficient balance to transfer\r\n    // - Spender must have sufficient allowance to transfer\r\n    // - 0 value transfers are allowed\r\n    // ------------------------------------------------------------------------\r\n    function transferFrom(address from, address to, uint tokens) public returns (bool success) {\r\n        balances[from] = balances[from].sub(tokens);\r\n        allowed[from][msg.sender] = allowed[from][msg.sender].sub(tokens);\r\n        balances[to] = balances[to].add(tokens);\r\n        emit Transfer(from, to, tokens);\r\n        return true;\r\n    }\r\n\r\n\r\n    // ------------------------------------------------------------------------\r\n    // Returns the amount of tokens approved by the owner that can be\r\n    // transferred to the spender's account\r\n    // ------------------------------------------------------------------------\r\n    function allowance(address tokenOwner, address spender) public constant returns (uint remaining) {\r\n        return allowed[tokenOwner][spender];\r\n    }\r\n\r\n\r\n        \r\n        \r\n        \r\n        function myBalance() public constant returns (uint){\r\n            return (balances[msg.sender]);\r\n        }\r\n        \r\n        function myAddress() public constant returns (address){\r\n            address myAddr=msg.sender;\r\n            return myAddr;\r\n        }\r\n        \r\n        function endSale() public {\r\n            require(msg.sender==admin);\r\n            admin.transfer(address(this).balance);\r\n            \r\n        }\r\n        \r\n    }\r\n        \r\n    \r\n*/",
  "sourcePath": "D:/workspace/major/project/CrowdFund/contracts/ICO.sol",
  "compiler": {
    "name": "solc",
    "version": "0.4.21+commit.dfe3193c.Emscripten.clang"
  },
  "schemaVersion": "3.0.19",
  "updatedAt": "2020-05-07T06:58:51.810Z",
  "devdoc": {
    "methods": {}
  },
  "userdoc": {
    "methods": {}
  }
}